{
  "contractName": "SunnyERC20",
  "abi": [
    {
      "inputs": [
        {
          "internalType": "uint256",
          "name": "_initialAmount",
          "type": "uint256"
        },
        {
          "internalType": "string",
          "name": "_tokenName",
          "type": "string"
        },
        {
          "internalType": "uint8",
          "name": "_decimalUnits",
          "type": "uint8"
        },
        {
          "internalType": "string",
          "name": "_tokenSymbol",
          "type": "string"
        }
      ],
      "stateMutability": "nonpayable",
      "type": "constructor"
    },
    {
      "anonymous": false,
      "inputs": [
        {
          "indexed": true,
          "internalType": "address",
          "name": "_owner",
          "type": "address"
        },
        {
          "indexed": true,
          "internalType": "address",
          "name": "_spender",
          "type": "address"
        },
        {
          "indexed": false,
          "internalType": "uint256",
          "name": "_value",
          "type": "uint256"
        }
      ],
      "name": "Approval",
      "type": "event"
    },
    {
      "anonymous": false,
      "inputs": [
        {
          "indexed": true,
          "internalType": "address",
          "name": "_from",
          "type": "address"
        },
        {
          "indexed": true,
          "internalType": "address",
          "name": "_to",
          "type": "address"
        },
        {
          "indexed": false,
          "internalType": "uint256",
          "name": "_value",
          "type": "uint256"
        }
      ],
      "name": "Transfer",
      "type": "event"
    },
    {
      "inputs": [
        {
          "internalType": "address",
          "name": "",
          "type": "address"
        },
        {
          "internalType": "address",
          "name": "",
          "type": "address"
        }
      ],
      "name": "allowed",
      "outputs": [
        {
          "internalType": "uint256",
          "name": "",
          "type": "uint256"
        }
      ],
      "stateMutability": "view",
      "type": "function"
    },
    {
      "inputs": [
        {
          "internalType": "address",
          "name": "",
          "type": "address"
        }
      ],
      "name": "balances",
      "outputs": [
        {
          "internalType": "uint256",
          "name": "",
          "type": "uint256"
        }
      ],
      "stateMutability": "view",
      "type": "function"
    },
    {
      "inputs": [],
      "name": "decimals",
      "outputs": [
        {
          "internalType": "uint8",
          "name": "",
          "type": "uint8"
        }
      ],
      "stateMutability": "view",
      "type": "function"
    },
    {
      "inputs": [],
      "name": "name",
      "outputs": [
        {
          "internalType": "string",
          "name": "",
          "type": "string"
        }
      ],
      "stateMutability": "view",
      "type": "function"
    },
    {
      "inputs": [],
      "name": "symbol",
      "outputs": [
        {
          "internalType": "string",
          "name": "",
          "type": "string"
        }
      ],
      "stateMutability": "view",
      "type": "function"
    },
    {
      "inputs": [],
      "name": "totalSupply",
      "outputs": [
        {
          "internalType": "uint256",
          "name": "",
          "type": "uint256"
        }
      ],
      "stateMutability": "view",
      "type": "function"
    },
    {
      "inputs": [
        {
          "internalType": "uint256",
          "name": "amount",
          "type": "uint256"
        }
      ],
      "name": "mint",
      "outputs": [],
      "stateMutability": "nonpayable",
      "type": "function"
    },
    {
      "inputs": [
        {
          "internalType": "uint256",
          "name": "amount",
          "type": "uint256"
        }
      ],
      "name": "burn",
      "outputs": [],
      "stateMutability": "nonpayable",
      "type": "function"
    },
    {
      "inputs": [
        {
          "internalType": "address",
          "name": "_to",
          "type": "address"
        },
        {
          "internalType": "uint256",
          "name": "_value",
          "type": "uint256"
        }
      ],
      "name": "transfer",
      "outputs": [
        {
          "internalType": "bool",
          "name": "success",
          "type": "bool"
        }
      ],
      "stateMutability": "nonpayable",
      "type": "function"
    },
    {
      "inputs": [
        {
          "internalType": "address",
          "name": "_from",
          "type": "address"
        },
        {
          "internalType": "address",
          "name": "_to",
          "type": "address"
        },
        {
          "internalType": "uint256",
          "name": "_value",
          "type": "uint256"
        }
      ],
      "name": "transferFrom",
      "outputs": [
        {
          "internalType": "bool",
          "name": "success",
          "type": "bool"
        }
      ],
      "stateMutability": "nonpayable",
      "type": "function"
    },
    {
      "inputs": [
        {
          "internalType": "address",
          "name": "_owner",
          "type": "address"
        }
      ],
      "name": "balanceOf",
      "outputs": [
        {
          "internalType": "uint256",
          "name": "balance",
          "type": "uint256"
        }
      ],
      "stateMutability": "view",
      "type": "function"
    },
    {
      "inputs": [
        {
          "internalType": "address",
          "name": "_spender",
          "type": "address"
        },
        {
          "internalType": "uint256",
          "name": "_value",
          "type": "uint256"
        }
      ],
      "name": "approve",
      "outputs": [
        {
          "internalType": "bool",
          "name": "success",
          "type": "bool"
        }
      ],
      "stateMutability": "nonpayable",
      "type": "function"
    },
    {
      "inputs": [
        {
          "internalType": "address",
          "name": "_owner",
          "type": "address"
        },
        {
          "internalType": "address",
          "name": "_spender",
          "type": "address"
        }
      ],
      "name": "allowance",
      "outputs": [
        {
          "internalType": "uint256",
          "name": "remaining",
          "type": "uint256"
        }
      ],
      "stateMutability": "view",
      "type": "function"
    }
  ],
  "bytecode": "0x6080604052600680546001600160a01b03191673865862d14328c50b3a41efa2b456ee5d3d95521a1790553480156200003757600080fd5b5060405162000c6038038062000c608339810160408190526200005a9162000229565b3360009081526020818152604090912085905560058590558351620000869160029190860190620000b6565b506003805460ff191660ff84161790558051620000ab906004906020840190620000b6565b5050505050620002f4565b828054620000c490620002b8565b90600052602060002090601f016020900481019282620000e8576000855562000133565b82601f106200010357805160ff191683800117855562000133565b8280016001018555821562000133579182015b828111156200013357825182559160200191906001019062000116565b506200014192915062000145565b5090565b5b8082111562000141576000815560010162000146565b634e487b7160e01b600052604160045260246000fd5b600082601f8301126200018457600080fd5b81516001600160401b0380821115620001a157620001a16200015c565b604051601f8301601f19908116603f01168101908282118183101715620001cc57620001cc6200015c565b81604052838152602092508683858801011115620001e957600080fd5b600091505b838210156200020d5785820183015181830184015290820190620001ee565b838211156200021f5760008385830101525b9695505050505050565b600080600080608085870312156200024057600080fd5b845160208601519094506001600160401b03808211156200026057600080fd5b6200026e8883890162000172565b94506040870151915060ff821682146200028757600080fd5b6060870151919350808211156200029d57600080fd5b50620002ac8782880162000172565b91505092959194509250565b600181811c90821680620002cd57607f821691505b602082108103620002ee57634e487b7160e01b600052602260045260246000fd5b50919050565b61095c80620003046000396000f3fe608060405234801561001057600080fd5b50600436106100cf5760003560e01c806342966c681161008c57806395d89b411161006657806395d89b41146101e7578063a0712d68146101ef578063a9059cbb14610202578063dd62ed3e1461021557600080fd5b806342966c681461017e5780635c6581651461019357806370a08231146101be57600080fd5b806306fdde03146100d4578063095ea7b3146100f257806318160ddd1461011557806323b872dd1461012c57806327e235e31461013f578063313ce5671461015f575b600080fd5b6100dc61024e565b6040516100e99190610742565b60405180910390f35b6101056101003660046107b3565b6102dc565b60405190151581526020016100e9565b61011e60055481565b6040519081526020016100e9565b61010561013a3660046107dd565b610348565b61011e61014d366004610819565b60006020819052908152604090205481565b60035461016c9060ff1681565b60405160ff90911681526020016100e9565b61019161018c36600461083b565b610474565b005b61011e6101a1366004610854565b600160209081526000928352604080842090915290825290205481565b61011e6101cc366004610819565b6001600160a01b031660009081526020819052604090205490565b6100dc610480565b6101916101fd36600461083b565b61048d565b6101056102103660046107b3565b610496565b61011e610223366004610854565b6001600160a01b03918216600090815260016020908152604080832093909416825291909152205490565b6002805461025b90610887565b80601f016020809104026020016040519081016040528092919081815260200182805461028790610887565b80156102d45780601f106102a9576101008083540402835291602001916102d4565b820191906000526020600020905b8154815290600101906020018083116102b757829003601f168201915b505050505081565b3360008181526001602090815260408083206001600160a01b038716808552925280832085905551919290917f8c5be1e5ebec7d5bd14f71427d1e84f3dd0314c0f7b2291e5b200ac8c7c3b925906103379086815260200190565b60405180910390a350600192915050565b6001600160a01b03831660008181526001602090815260408083203384528252808320549383529082905281205490919083118015906103885750828110155b61039157600080fd5b6001600160a01b038416600090815260208190526040812080548592906103b99084906108d7565b90915550506001600160a01b038516600090815260208190526040812080548592906103e69084906108ef565b909155505060001981101561042e576001600160a01b0385166000908152600160209081526040808320338452909152812080548592906104289084906108ef565b90915550505b836001600160a01b0316856001600160a01b03166000805160206109078339815191528560405161046191815260200190565b60405180910390a3506001949350505050565b61047d8161052e565b50565b6004805461025b90610887565b61047d81610672565b336000908152602081905260408120548211156104b257600080fd5b33600090815260208190526040812080548492906104d19084906108ef565b90915550506001600160a01b038316600090815260208190526040812080548492906104fe9084906108d7565b90915550506040518281526001600160a01b03841690339060008051602061090783398151915290602001610337565b6006546001600160a01b0316806105965760405162461bcd60e51b815260206004820152602160248201527f45524332303a206275726e2066726f6d20746865207a65726f206164647265736044820152607360f81b60648201526084015b60405180910390fd5b6001600160a01b0381166000908152602081905260409020548281101561060a5760405162461bcd60e51b815260206004820152602260248201527f45524332303a206275726e20616d6f756e7420657863656564732062616c616e604482015261636560f01b606482015260840161058d565b6001600160a01b03821660009081526020819052604081208483039055600580548592906106399084906108ef565b90915550506040518381526000906001600160a01b038416906000805160206109078339815191529060200160405180910390a3505050565b6006546001600160a01b0316806106cb5760405162461bcd60e51b815260206004820152601f60248201527f45524332303a206d696e7420746f20746865207a65726f206164647265737300604482015260640161058d565b81600560008282546106dd91906108d7565b90915550506001600160a01b0381166000908152602081905260408120805484929061070a9084906108d7565b90915550506040518281526001600160a01b038216906000906000805160206109078339815191529060200160405180910390a35050565b600060208083528351808285015260005b8181101561076f57858101830151858201604001528201610753565b81811115610781576000604083870101525b50601f01601f1916929092016040019392505050565b80356001600160a01b03811681146107ae57600080fd5b919050565b600080604083850312156107c657600080fd5b6107cf83610797565b946020939093013593505050565b6000806000606084860312156107f257600080fd5b6107fb84610797565b925061080960208501610797565b9150604084013590509250925092565b60006020828403121561082b57600080fd5b61083482610797565b9392505050565b60006020828403121561084d57600080fd5b5035919050565b6000806040838503121561086757600080fd5b61087083610797565b915061087e60208401610797565b90509250929050565b600181811c9082168061089b57607f821691505b6020821081036108bb57634e487b7160e01b600052602260045260246000fd5b50919050565b634e487b7160e01b600052601160045260246000fd5b600082198211156108ea576108ea6108c1565b500190565b600082821015610901576109016108c1565b50039056feddf252ad1be2c89b69c2b068fc378daa952ba7f163c4a11628f55a4df523b3efa2646970667358221220acb9a9403254d296131b46d04b85ca197094689d0d63030c7830b6ace1ca3df764736f6c634300080d0033",
  "immutableReferences": {},
  "source": "// SPDX-License-Identifier: MIT LICENSE\n/* Implements ERC20 token standard: https://github.com/ethereum/EIPs/blob/master/EIPS/eip-20.md */\npragma solidity ^0.8.0;\n\nimport \"./IERC20.sol\";\n\ncontract SunnyERC20 is IERC20 {\n    uint256 private constant MAX_UINT256 = 2**256 - 1;\n    mapping(address => uint256) public balances;\n    mapping(address => mapping(address => uint256)) public allowed;\n    /*\n    NOTE:\n    The following variables are OPTIONAL vanities. One does not have to include them.\n    They allow one to customise the token contract & in no way influences the core functionality.\n    Some wallets/interfaces might not even bother to look at this information.\n    */\n    string public name;\n    uint8 public decimals;\n    string public symbol;\n    uint256 public totalSupply;\n\n    address account0 = 0x865862D14328c50b3a41EfA2B456Ee5d3d95521A;\n\n    constructor(\n        uint256 _initialAmount,\n        string memory _tokenName,\n        uint8 _decimalUnits,\n        string memory _tokenSymbol\n    ) {\n        balances[msg.sender] = _initialAmount; // Give the creator all initial tokens\n        totalSupply = _initialAmount; // Update total supply\n        name = _tokenName; // Set the name for display purposes\n        decimals = _decimalUnits; // Amount of decimals for display purposes\n        symbol = _tokenSymbol; // Set the symbol for display purposes\n    }\n\n    // ***************************************************************\n    // ***************************************************************\n    // ***************************************************************\n\n    function _beforeTokenTransfer(\n        address from,\n        address to,\n        uint256 amount\n    ) internal virtual {}\n\n    function _afterTokenTransfer(\n        address from,\n        address to,\n        uint256 amount\n    ) internal virtual {}\n\n    // ***************************************************************\n    // ***************************************************************\n    // ***************************************************************\n\n    function _mint(uint256 amount) internal virtual {\n\n        address account = account0;\n\n        require(account != address(0), \"ERC20: mint to the zero address\");\n\n        _beforeTokenTransfer(address(0), account, amount);\n\n        totalSupply += amount;\n        balances[account] += amount;\n        emit Transfer(address(0), account, amount);\n\n        _afterTokenTransfer(address(0), account, amount);\n    }\n\n    function _burn(uint256 amount) internal virtual {\n\n        address account = account0;\n\n        require(account != address(0), \"ERC20: burn from the zero address\");\n\n        _beforeTokenTransfer(account, address(0), amount);\n\n        uint256 accountBalance = balances[account];\n        require(accountBalance >= amount, \"ERC20: burn amount exceeds balance\");\n        unchecked {\n            balances[account] = accountBalance - amount;\n        }\n        totalSupply -= amount;\n\n        emit Transfer(account, address(0), amount);\n\n        _afterTokenTransfer(account, address(0), amount);\n    }\n\n    // ***************************************************************\n    // ***************************************************************\n    // ***************************************************************\n\n    function mint(uint256 amount) public {\n        _mint(amount);\n    }\n\n    function burn(uint256 amount) public {\n        _burn(amount);\n    }\n\n    function transfer(address _to, uint256 _value)\n        public\n        override\n        returns (bool success)\n    {\n        require(balances[msg.sender] >= _value);\n        balances[msg.sender] -= _value;\n        balances[_to] += _value;\n        emit Transfer(msg.sender, _to, _value); //solhint-disable-line indent, no-unused-vars\n        return true;\n    }\n\n    function transferFrom(\n        address _from,\n        address _to,\n        uint256 _value\n    ) public override returns (bool success) {\n        uint256 allowance_ = allowed[_from][msg.sender];\n        require(balances[_from] >= _value && allowance_ >= _value);\n        balances[_to] += _value;\n        balances[_from] -= _value;\n        if (allowance_ < MAX_UINT256 ) {\n            allowed[_from][msg.sender] -= _value;\n        }\n        emit Transfer(_from, _to, _value); //solhint-disable-line indent, no-unused-vars\n        return true;\n    }\n\n    function balanceOf(address _owner)\n        public\n        view\n        override\n        returns (uint256 balance)\n    {\n        return balances[_owner];\n    }\n\n    function approve(address _spender, uint256 _value)\n        public\n        override\n        returns (bool success)\n    {\n        allowed[msg.sender][_spender] = _value;\n        emit Approval(msg.sender, _spender, _value); //solhint-disable-line indent, no-unused-vars\n        return true;\n    }\n\n    function allowance(address _owner, address _spender)\n        public\n        view\n        override\n        returns (uint256 remaining)\n    {\n        return allowed[_owner][_spender];\n    }\n    \n}",
  "sourcePath": "/Users/sunnypdater/Project/lecture/metac_ontract/contracts/SunnyERC20.sol",
  "compiler": {
    "name": "solc",
    "version": "0.8.13+commit.abaa5c0e.Emscripten.clang"
  },
  "schemaVersion": "3.4.6",
  "updatedAt": "2022-05-14T03:49:33.687Z",
  "devdoc": {
    "kind": "dev",
    "methods": {
      "allowance(address,address)": {
        "params": {
          "_owner": "The address of the account owning tokens",
          "_spender": "The address of the account able to transfer the tokens"
        },
        "returns": {
          "remaining": "Amount of remaining tokens allowed to spent"
        }
      },
      "approve(address,uint256)": {
        "params": {
          "_spender": "The address of the account able to transfer the tokens",
          "_value": "The amount of tokens to be approved for transfer"
        },
        "returns": {
          "success": "Whether the approval was successful or not"
        }
      },
      "balanceOf(address)": {
        "params": {
          "_owner": "The address from which the balance will be retrieved"
        },
        "returns": {
          "balance": "The balance"
        }
      },
      "transfer(address,uint256)": {
        "params": {
          "_to": "The address of the recipient",
          "_value": "The amount of token to be transferred"
        },
        "returns": {
          "success": "Whether the transfer was successful or not"
        }
      },
      "transferFrom(address,address,uint256)": {
        "params": {
          "_from": "The address of the sender",
          "_to": "The address of the recipient",
          "_value": "The amount of token to be transferred"
        },
        "returns": {
          "success": "Whether the transfer was successful or not"
        }
      }
    },
    "version": 1
  },
  "userdoc": {
    "kind": "user",
    "methods": {
      "approve(address,uint256)": {
        "notice": "`msg.sender` approves `_spender` to spend `_value` tokens"
      },
      "transfer(address,uint256)": {
        "notice": "send `_value` token to `_to` from `msg.sender`"
      },
      "transferFrom(address,address,uint256)": {
        "notice": "send `_value` token to `_to` from `_from` on the condition it is approved by `_from`"
      }
    },
    "version": 1
  }
}